:020000040800F2
:1000000068070020910100082B150008071400085C
:10001000291500081F060008871E000800000000C0
:10002000000000000000000000000000211E000889
:100030002106000800000000391C0008231E0008EB
:10004000AB010008AB010008AB010008AB010008E0
:10005000AB010008AB010008AB010008AB010008D0
:10006000AB010008AB010008AB010008AB010008C0
:10007000AB010008AB010008AB010008AB010008B0
:10008000AB010008AB010008AB010008AB010008A0
:10009000AB010008AB010008AB010008AB01000890
:1000A000AB010008AB010008AB010008AB01000880
:1000B000AB010008AB010008AB010008AB01000870
:1000C000AB010008AB010008AB010008AB01000860
:1000D000AB010008AB010008AB010008AB01000850
:1000E000AB010008AB010008AB01000800F002F80A
:1000F00000F03EF80AA090E8000C82448344AAF184
:100100000107DA4501D100F033F8AFF2090EBAE881
:100110000F0013F0010F18BFFB1A43F0010318473B
:10012000601F0000801F0000103A24BF78C878C10B
:10013000FAD8520724BF30C830C144BF04680C60ED
:10014000704700000023002400250026103A28BF35
:1001500078C1FBD8520728BF30C148BF0B60704739
:100160001FB59DE8030000F02BF91FBD10B510BDB1
:1001700000F0D2F91146FFF7F3FF01F095FE00F011
:10018000F0F903B4FFF7F2FF03BC00F021FA00001E
:100190000948804709480047FEE7FEE7FEE7FEE71B
:1001A000FEE7FEE7FEE7FEE7FEE7FEE70448054957
:1001B000054A064B70470000851E0008ED00000848
:1001C0006801002068070020680300206803002001
:1001D00070B5A0FB0140B4F1805170F1000024BF64
:1001E000002070BD204600F01AF905001CBF214612
:1001F00000F044F9284670BD70B50446051F00F0B4
:10020000C3F80068002C14BF446870BD002C18BFF0
:10021000AC423CBF20466468F8D301680A18AA4281
:1002200018BF456003D12A6805461144016028685B
:100230004119A1421CBF6C6070BD61686960216892
:100240000844286070BD032A40F2308010F0030C8F
:1002500000F0158011F8013BBCF1020F624498BF19
:1002600011F801CB00F8013B38BF11F8013BA2F1B6
:10027000040298BF00F801CB38BF00F8013B11F031
:10028000030300F02580083AC0F0088051F8043BD1
:10029000083A51F804CBA0E80810F5E7121D5CBF3E
:1002A00051F8043B40F8043BAFF30080D20724BF71
:1002B00011F8013B11F801CB48BF11F8012B24BF05
:1002C00000F8013B00F801CB48BF00F8012B704754
:1002D00010B5203AC0F00B80B1E81850203AA0E8E1
:1002E0001850B1E81850A0E81850BFF4F5AF5FEA15
:1002F000027C24BFB1E81850A0E8185044BF18C9C8
:1003000018C0BDE810405FEA827C24BF51F8043B6E
:1003100040F8043B08BF7047D20728BF31F8023BC2
:1003200048BF11F8012B28BF20F8023B48BF00F856
:10033000012B70474FF0000200B5134694469646D5
:10034000203922BFA0E80C50A0E80C50B1F12001E8
:10035000BFF4F7AF090728BFA0E80C5048BF0CC096
:100360005DF804EB890028BF40F8042B08BF7047F4
:1003700048BF20F8022B11F0804F18BF00F8012B66
:100380007047704770477047004870471001002061
:10039000704770477047704738B504460A460020DA
:1003A0006946AFF30080002808BF38BD02460099B7
:1003B000204600F090F8012038BD012000F0A5B8DB
:1003C000F8B5AFF30080054600200C46102000BFB2
:1003D0000646A819A0420DD9324669460020AFF35F
:1003E0000080070008BF00F090F80098A04218BFF6
:1003F0000546C419FFF7C8FF05600746F01D20F049
:1004000007004619284600F05FF8B44208BFF8BD5F
:10041000A21B31463868BDE8F84000F05CB870B502
:100420000646FFF7B1FF056806F10B0020F0070450
:10043000B4429CBF002070BD2B466A68BAB11068F8
:10044000A04210D304F1080188423CBF50685860B4
:1004500007D35168101941601168091B0160586089
:100460001460101D70BD13465268002AE7D1214662
:100470002846FFF791FF0028DED170BD4FF0000243
:100480000429C0F0128010F0030C3FF455AFCCF1FA
:10049000040CBCF1020F18BF00F8012BA8BF20F814
:1004A000022BA1EB0C01FFF747BF5FEAC17C24BF21
:1004B00000F8012B00F8012B48BF00F8012B704712
:1004C000004870470801002000210160C0E90110C8
:1004D000704710207047034640688C46002818BFBC
:1004E00088423CBF03464068F8D3186818448842E5
:1004F00007D00CF1030020F00700001D411A521A2A
:100500000146081D0A60FFF777BE10B500F038F805
:10051000BDE8104000F02EB87546FFF7D1FFAE469B
:1005200005006946534620F00700854618B020B5FF
:10053000FFF73CFEBDE820404FF000064FF00007FB
:100540004FF000084FF0000B21F00701AC46ACE87B
:10055000C009ACE8C009ACE8C009ACE8C0098D46E8
:10056000704710B50446AFF300802046BDE8104048
:10057000FFF707BE002801D000F02AB8704700003E
:1005800010B5012805D0002103A000F028F80120B3
:1005900010BD09A1F8E7000053494752544D454D9D
:1005A0003A204F7574206F662068656170206D6514
:1005B0006D6F7279000000003A2048656170206D0F
:1005C000656D6F727920636F727275707465640007
:1005D00001491820ABBEFEE726000200704770B547
:1005E00005460C460A2000E06D1C00F011F835B1FC
:1005F00028780028F8D102E0641C00F009F814B152
:1006000020780028F8D1BDE870400A20AFF30080C0
:1006100008B569468DF800000320ABBE08BDFEE7B3
:100620007047000070B5044600F010F90546601CE4
:1006300002D004480078044400F008F9401BA042AE
:10064000FAD370BD200000202DE9F84FDFF8B891F3
:100650000024A9F1040B23460F2709F1040AABF18A
:10066000040EC9E00125A5402A40AA427DD1674E6B
:10067000D1F804C0ACEB0608B44532D014DCBCF1B0
:10068000030F3AD009DCBCF1000F2AD0BCF1010FF6
:100690001CD0BCF1020F31D11DE0BCF1110F17D0FD
:1006A000BCF1120F2AD119E0B8F5881F19D006DC69
:1006B000B8F5803F15D0B8F5801F1FD111E0B8F50F
:1006C000001F0ED0B8F5041F18D10AE0CB6815E062
:1006D000CB681B1D12E0CB6808330FE0CB680C33EE
:1006E0000CE08B682BB1012B4FF0080303D0456160
:1006F00004E0042302E0056100E00023FF2A01D8A2
:10070000064601E000F104064FEA840501D9A5F18F
:100710002005D6F8008007FA05FC28EA0C0803FA41
:1007200005F548EA0508C6F800804D68ED0062D579
:10073000374DAE6946F00106AE61AD6924F003069F
:1007400005F001050095334D06EB050CDCF808506B
:10075000A607360F07FA06F825EA0805DFF8B8807D
:10076000404503D14FF0000817E044E0DFF8AC80CB
:10077000404502D14FF001080FE0DFF8A48040456A
:1007800002D14FF0020808E0DFF89880404502D11E
:100790004FF0030801E04FF0040808FA06F848EAB1
:1007A0000508CCF808804D68D9F80060ED024D4688
:1007B00001D5164300E096432E604D68DAF80060DC
:1007C000AD02554601D5164300E096432E604D68B4
:1007D000DBF80060AD035D4601D5164300E09643AB
:1007E0002E604D68DEF80060ED03754601D51643B6
:1007F00000E096432E60641C0D682A46E5407FF4B5
:1008000031AFBDE8F88F000008040140000011106E
:10081000001002400000014000080140000C0140AF
:1008200000100140001401408068084000D0012001
:100830007047C26821EA02030A4043EA02410161AB
:1008400070470AB1016170470904FBE701488068FD
:10085000704700002000002002488168027811449F
:100860008160704720000020074810B5016841F002
:1008700010010160032000F067F80F2000F006F877
:1008800000F024F8002010BD0020024070B50D4D8E
:1008900004464FF47A712878B1FBF0F00A490968F0
:1008A000B1FBF0F000F09BFD48B9102C07D20022FC
:1008B0002146501E00F028F800206C6070BD012019
:1008C00070BD0000200000202C0000200C4808B55E
:1008D000816941F001018161816901F001010091AB
:1008E000C16941F08051C161C06900F08050009041
:1008F0000448416821F0E06141F00071416008BDA9
:100900000010024000000140F0B40E4B1B680C4682
:10091000C3F30223C3F10705042D00D90425191DD3
:10092000072901D2002300E0DB1E012606FA05F1AB
:10093000491E214099409E40761E16403143F0BC2E
:1009400001F0A2BA0CED00E0064900F007020868C9
:100950004FF6FF03184040EA0220034A10430860A4
:10096000704700000CED00E00000FA052DE9F047AB
:100970000F46050061D0434E306800F00700B842D2
:1009800009D2306820F0070038433060306800F04A
:100990000700B84251D128683B4C810712D5400767
:1009A00003D5606840F4E06060602878000703D5F4
:1009B000606840F4605060606068A96820F0F000F2
:1009C000084360602878C00728D06868012810D0E4
:1009D0002168022810D0890700292EDA616821F0E9
:1009E000030101436160FFF731FF804641F288391E
:1009F0000DE021688903EFE78901EDE7FFF726FFA6
:100A0000A0EB0801494502D90320BDE8F0876068E2
:100A1000696800F00C00B0EB810FEFD1306800F096
:100A20000700B8420BD9306820F007003843306027
:100A3000306800F00700B84201D00120E5E72878CF
:100A4000400705D56068E96820F4E060084360600D
:100A50002878000706D56068296920F4605040EACC
:100A6000C100606000F018F86168084AC1F3031122
:100A7000515CC8400649086006480068FFF706FF59
:100A80000020C2E70020024000100240622000085F
:100A90002C000020240000200E4A51680E4801F06E
:100AA0000C03042B11D0082B0FD10C48C1F3834346
:100AB000C903C05C0AD55168084AC1F34041921E7F
:100AC000515C054A5043B0FBF1F07047044948437C
:100AD000704700000010024000127A005220000807
:100AE00000093D002DE9F84F040070D02078C04D7A
:100AF000C00749D06868C0F38100012807D0686842
:100B0000C0F38100022809D16868C00306D52868AF
:100B1000800339D560680028E7D035E06068B0F51B
:100B2000803F0BD010B1B0F5A02F11D0286820F471
:100B300080302860286820F4802002E0286840F493
:100B400080302860606890B1FFF780FE06460AE0BA
:100B5000286840F480202860F0E700BFFFF776FEA9
:100B6000801B642873D828688003F7D50CE0FFF752
:100B70006DFE064605E000BFFFF768FE801B642897
:100B8000F0D828688003F7D420789A4E80074FF079
:100B900001094FF0000839D5686810F00C0F07D034
:100BA0006868C0F38100022809D16868C00306D4D0
:100BB0002868800714D52069012808D110E0206931
:100BC000B0B1C6F80090FFF741FE074605E00AE124
:100BD000FFF73CFEC01B0228C4D828688007F7D561
:100BE0002868616920F0F80040EAC10028600DE043
:100BF000C6F80080FFF72AFE074604E0FFF726FE4E
:100C0000C01B022823D828688007F7D42078000763
:100C10002CD57948A169D9B1C0F80090FFF716FE2C
:100C2000074604E0FFF712FEC01B02280FD8686ACF
:100C30008007F7D571484FF4FA510068B0FBF1F026
:100C4000009000BF0098411E0091FAD20EE080E0B3
:100C5000C0F80080FFF7FAFD074604E0FFF7F6FD55
:100C6000C01B022875D8686A8007F7D4207840072F
:100C700060D5E8690027C00008D4E86940F08050DA
:100C8000E861E869012700F0805000905C48016845
:100C9000C90513D40168834641F480710160FFF7F0
:100CA000D5FD824606E000BFFFF7D0FDA0EB0A00AD
:100CB00064284ED8DBF80000C005F5D5E0680128AF
:100CC0000AD008B1052813D0286A20F00100286254
:100CD000286A20F0040002E0286A40F0010028623F
:100CE000E06841F2883B98B1FFF7B0FD82460BE027
:100CF000286A40F004002862EEE700BFFFF7A6FD77
:100D0000A0EB0A0159455AD8286A8007F6D50CE0AD
:100D1000FFF79CFD824605E0FFF798FDA0EB0A0176
:100D200059454CD8286A8007F6D41FB1E86920F0ED
:100D30008050E861E06988B36968C1F381010229E4
:100D400044D00228C6F8608004D0FFF77FFD044637
:100D500038E034E0FFF77AFD074604E0FFF776FD60
:100D6000C01B02282BD828688001F7D4206AB0F570
:100D7000803F05D16868A16820F4003008436860AE
:100D8000D4E908010843696821F4741108436860D4
:100D9000C6F86090FFF75AFD044606E025E000BF64
:100DA000FFF754FD001B022809D828688001F7D5F9
:100DB0001BE000BFFFF74AFD001B022802D90320F9
:100DC000BDE8F88F28688001F4D40EE00128F7D040
:100DD0006868226A00F48031914204D1616A00F4AB
:100DE0007010884201D00120EAE70020E8E7000007
:100DF0000010024000004242800442422C000020C9
:100E00000070004070B5040009D0606A002540B150
:100E100025616561A56294F8510040B10CE00120A4
:100E200070BD6068B0F5827FF4D0E561F2E784F8C8
:100E30005050204600F040F8022084F8510020680D
:100E4000016821F040010160A088218900F48270CE
:100E500001F404410843A18901F400610843217CA5
:100E600001F002010843217D01F001010843218BBB
:100E700001F400710843217F01F03801084394F820
:100E8000201001F080010843218D01F40051084336
:100E900021680860A069042101EA104021684860C7
:100EA0002068C16921F40061C1616565012084F891
:100EB0005100002070BD000030B585B000240094C2
:100EC00001940294039400681549884225D115487D
:100ED000C16941F48041C161C16901F4804104915B
:100EE000816941F00801816180690F4D00F00800BF
:100EF00004904FF4204000900220019003200390C2
:100F000069462846FFF7A0FB4FF48040CDE9000476
:100F1000694628460294FFF797FB05B030BD0000F4
:100F20000038004000100240000C01402DE9F84F4D
:100F3000044690F85100984616460F4600250128B1
:100F400001D0022598E060684FF0040BB0F5827F75
:100F500001D1A068F8B194F85000012826D04FF0D4
:100F6000010984F85090FFF771FC8246002F7FD072
:100F7000002E7DD084F851B000206065A763A6875D
:100F8000E6872063A086E08620646064A068B0F5F0
:100F9000004F0DD016E084F851B013460A462046A3
:100FA000CDF8008000F024F9BDE8F88F0220FBE7BF
:100FB0002068016821F0400101602068016821F487
:100FC0008041016020680168490603D4016841F04E
:100FD00040010160E068D8B13BE020688168C90742
:100FE00009D0007BA16B0870A06B401CA063E08F50
:100FF000401EE0870CE0FFF729FCA0EB0A01414509
:1010000003D3B8F1FF3F03D006E0B8F1000F03D0DF
:10101000E08F0028E1D11FE003252BE020688168E4
:10102000C90709D0C068A16B0880A06B801CA063B1
:10103000E08F401EE0870CE0FFF708FCA0EB0A0100
:10104000414503D3B8F1FF3F03D0E5E7B8F1000F06
:10105000E2D0E08F0028E1D152464146204600F020
:1010600045FE08B120206065606D00E000E008B139
:10107000012501E084F85190002084F850002846B2
:1010800092E72DE9F84F044690F850000026984664
:1010900015468A4601280CD0012784F85070FFF7C6
:1010A000D5FB814694F85100B346012804D00226AE
:1010B0009AE00220BDE8F88FBAF1000F6FD0002D42
:1010C0006DD0032084F85100C4F854B0C4F830A0A7
:1010D000A586E586C4F838B0A4F83CB0A4F83EB0C4
:1010E000C4F844B0C4F840B0A068B0F5004F09D1CE
:1010F0002068016821F0400101602068016841F426
:101100008041016020680168490603D4016841F00C
:1011100040010160E068B0F5006F606803D058B32B
:10112000012D29D049E008B1012D1FD1206B216884
:101130000088C86006E020688168890709D5216BAE
:101140000988C160206B801C2063E08E401EE08611
:101150000CE0FFF77BFBA0EB0901414503D3B8F19D
:10116000FF3F03D006E0B8F1000F03D0E08E002867
:10117000E1D125E0032635E0206B21680078087373
:1011800006E02068816889070AD5216B0978017318
:10119000206B401C2063E08E401EE0860DE01FE0C7
:1011A000FFF754FBA0EB0901414503D3B8F1FF3F22
:1011B00003D0DFE7B8F1000FDCD0E08E0028E0D1EB
:1011C0004A464146204600F0BFFD08B12020606538
:1011D000A06818B92068C16880680090606D08B187
:1011E000012601E084F8517084F850B0304661E780
:1011F0002DE9FF4F81B0044690F8500000260E9F65
:101200001D4693464FF0010901280FD04FF0010A07
:1012100084F850A0FFF71AFB804694F851006168EB
:1012200001280DD0B1F5827F08D103E0022005B07E
:10123000BDE8F08FA16809B9042801D00226C9E0F1
:101240000298002865D0BBF1000FFBD0002DF9D02B
:1012500094F85100042802D0052084F851000020A1
:101260006065C4F838B0E587A58702992163E586F3
:10127000A5862064606420680168490603D401687B
:1012800041F040010160E068B0F5006F606803D094
:10129000F0B3012D47D081E008B1012D3CD1206B86
:1012A00021680088C860206B801C2063E08E401E8F
:1012B000E08631E02068816889070FD5E18E69B149
:1012C000B9F1010F0AD1216B0988C160206B801C24
:1012D0002063E08E401EE0864FF0000920688168A0
:1012E000C9070CD0E18F51B1C068A16B0880A06B19
:1012F000801CA063E08F401EE0874FF00109FFF7DC
:10130000A5FAA0EB0800B84206D3781C04D001E08F
:1013100009E05BE003265BE0E08E0028CAD1E08FA5
:101320000028C7D140E0206B216800780873206B4B
:10133000401C2063E08E401EE0862FE0206881681C
:1013400089070FD5E18E69B1B9F1010F0AD1216B7F
:1013500009780173206B401C2063E08E401EE086FC
:101360004FF0000920688168C9070CD0E18F51B1A6
:10137000C068A16B0870A06B401CA063E08F401E8A
:10138000E0874FF00109FFF761FAA0EB0800B842CF
:1013900002D3781C02D0BAE7002FB8D0E08E002824
:1013A000CCD1E08F0028C9D142463946204600F012
:1013B000CBFC18B10126202060650BE0A06818B9AD
:1013C0002068C16880680090606D08B1012601E066
:1013D00084F851A0002084F85000304627E710B56B
:1013E000401EB0F1807F01D3012010BD4FF0E024FA
:1013F00060610F21601700F047FD0020A061072009
:101400002061002010BDFEE72DE9F04385B00025E6
:1014100031480095019502950395816941F02001BD
:101420008161816901F020010491816941F0040129
:101430008161816901F004010491816941F0080131
:101440008161816901F008010491816941F0100115
:1014500081618069DFF8848000F010004FF4C0776C
:101460000490012239464046FFF7EBF9DFF870900F
:101470004FF40146012231464846FFF7E2F90124C4
:10148000CDE90045694648460294FFF7DDF80220A1
:10149000CDE90005694602944046FFF7D5F8CDE94D
:1014A0000074032569464046CDE90245FFF7CCF8B4
:1014B0006003CDE9000469460A48CDE90245FFF71B
:1014C000C3F8CDE9006469464846CDE90245FFF717
:1014D000BBF805B0BDE8F08300100240000C0140ED
:1014E00000080140001001400E4810B50C49016091
:1014F0004FF48271416000218160C1604FF400723D
:101500000161C0E90512C1610162416281620A2183
:10151000C162FFF777FC002801D072B6FEE710BD6C
:101520000038004048000020FEE7FEE708B5002034
:1015300000F0BAFA50208DF8000073208DF80100F9
:101540006423022269460348FFF79BFD012000F057
:10155000ABFA08BDB00000200020AFF3008070B5EA
:10156000054600F0B3FA0446C0F380166EB115B11B
:10157000C4F3420028704021072000F027FBA0069A
:1015800003D52021072000F021FB304670BD00006C
:101590000FB460487CB50DF1700C58229CE87000C7
:1015A00006A9FEF795FE5C48C460C580068101204F
:1015B00000F07AFA002000F06DFA0520FFF732F80B
:1015C0000821002000F002FB3F21012000F0FEFA7C
:1015D0000321022000F0FAFA0321084600F0F6FA8F
:1015E0000321042000F0F2FA0221052000F0EEFAB7
:1015F0000F21062000F0EAFA0E21072000F0E6FA9B
:101600000021082000F0E2FA0021092000F0DEFAB3
:10161000E7248DF803408DF802408DF801408DF8E5
:1016200004408DF80040052269460A2000F0E6FAE1
:10163000C2208DF803008DF802008DF801008DF8AE
:1016400004008DF80000052269460B2000F0D6FA50
:10165000C3210C2000F0BAFAC4210D2000F0B6FA24
:10166000C5210E2000F0B2FAC6210F2000F0AEFA1C
:101670008DF803408DF802408DF801408DF804404C
:101680008DF8004005226946102000F0B7FA0021CD
:10169000112000F09BFA0021122000F097FA00219F
:1016A000132000F093FA0021142000F08FFA00219B
:1016B000152000F08BFA0021162000F087FAFFF7C2
:1016C00035FF00211C2000F081FA00211D2000F0D0
:1016D0007DFA00210F2000F039F9032000F010F905
:1016E000022000F0DFF8022000F0C0F800F016F849
:1016F000202000F023F900F0AEF84C2000F0CAF8EA
:1017000000F0E0F900F0DAF900F088F87CBC5DF850
:1017100014FB0000B00000203000002010B51D2098
:1017200000F0FAF920F004011D2000F04FFA00212A
:101730001C2000F04BFA02490020C87010BD0000C8
:101740003000002010B51D2000F0E6F940F0040143
:101750001D2000F03BFA1D2000F0DEF948B9FFF72C
:10176000E5FE1D2000F0D8F940F004011D2000F036
:101770002DFA1C2000F0D0F940F03F011C2000F0B1
:1017800025FA02490120C87010BD00003000002079
:10179000602000F0C1B900007FB504001248134D6D
:1017A00006D0062C1ED8022C07D2005D052206E0CA
:1017B000DDE90212C5E90412F7E7005D012202A982
:1017C00000F01CFA0848A978801F005D00F0FEF9BF
:1017D000022000F0A1F90121A1400843C1B202207A
:1017E00000F0F4F97FBD00007820000830000020F0
:1017F00013B5052269460A2000F000FA0522694661
:10180000102000F0FBF904488178202900D3202122
:10181000112000F0DBF91CBD3000002010B50020C5
:1018200000F07AF920F00201BDE81040002000F03D
:10183000CDB910B500F04EF9172000F06DF900F0A9
:10184000010400F03BF9602000F066F90CB10120C2
:1018500010BD002010BD7021072000F0B7B908B1FD
:101860003F2100E00021012000F0B0B910B504468E
:10187000002000F051F920F00C011CB1012C06D021
:1018800041F00C01BDE81040002000F09FB941F08C
:101890000801F7E77F2800D37F200146052000F0EC
:1018A00095B900002DE9F04107464FF000080620E9
:1018B00000F032F9114D002620F028046E71022F3D
:1018C0000ED0012F10D06E712146062000F07EF957
:1018D000062000F021F9A0420BD14FF0010809E0E9
:1018E0006E7144F02004EFE70120687144F00804B1
:1018F000EAE76E714046BDE8F0810000300000204C
:1019000010B50446062000F007F920F00601032C6C
:101910000DD0022C05D0012C06D054B1042C06D0D9
:1019200007E041F0040104E041F0020101E041F070
:101930000601BDE81040062000F048B9202800D379
:1019400020200149887070473000002000F00F000F
:1019500060F31F11042000F039B9000010B5002019
:1019600000F0DAF840F00301002000F02FF90B49F5
:10197000D1E90401084305D00849052210310A20A5
:1019800000F03CF900F09EF800F098F8012000F01B
:1019900081F8BDE810400120FEF744BE3000002071
:1019A00070B505460C46002000F074F8002000F0E9
:1019B000B3F820F0010040F00201002000F006F929
:1019C000012000F067F80120FEF72CFE2146284692
:1019D00000F0E0F8012000F05DF80120FEF722FEA3
:1019E000BDE87040002000F055B810B5002000F0B0
:1019F00051F800F067F8BDE8104000F05FB82DE93D
:101A0000F04115460E46044600F060F807460020F7
:101A100020707021072000F0D9F8C7F34010207023
:101A2000C7F300103070C7F380102870BDE8F08154
:101A30003EB50C460546FFF70EFF21462846FFF748
:101A4000AFFFFEF703FF0446012201A9082000F0C2
:101A500083F800F03BF810F0300F04D1FEF7F6FEEB
:101A6000001B0A28F0D30A4A02A96846FFF7C7FFFD
:101A7000074C9DF80050207810B1FFF789FE607088
:101A80000020FFF76CFD00F01DF828463EBD000069
:101A900030000020020003480189C06800D0012204
:101AA000FEF7CFBE3000002002000348C188C068A6
:101AB00000D00122FEF7C5BE30000020FF21E22049
:101AC00000F084B8FF21E12000F080B8072000F08A
:101AD00023B8000038B505460D4884788C4200D9FB
:101AE0000C460020FFF7E0FF61208DF80000642322
:101AF000012269460748FFF7C4FA642322462946B3
:101B00000448FFF713FA0120FFF7CEFF38BD0000AD
:101B100030000020B000002038B504460020FFF758
:101B2000C3FF04F01F008DF8000064230122694602
:101B30000848FFF7A6FA6423012206480DF10101C7
:101B4000FFF7F4F99DF801400120FFF7ADFF2046B3
:101B500038BD0000B0000020F8B5044615460E461A
:101B60000020FFF7A1FF04F01F008DF800006423A0
:101B7000012269460648FFF784FA64232A46314663
:101B80000348FFF7D3F90120FFF78EFFF8BD0000EF
:101B9000B000002038B505460C460020FFF784FF52
:101BA000A0208DF800006423012269460648FFF753
:101BB00068FA6423224629460348FFF762FA0120A7
:101BC000FFF772FF38BD0000B000002038B50546B1
:101BD0000C460020FFF768FF45F020008DF800005C
:101BE0008DF801406423022269460348FFF749FA51
:101BF0000120FFF759FF38BDB0000020F8B50446BA
:101C000015460E460020FFF74FFF44F020008DF8E8
:101C100000006423012269460648FFF732FA642374
:101C20002A4631460348FFF72CFA0120FFF73CFF14
:101C3000F8BD0000B0000020704700002DE9F0471B
:101C4000DFF89CA008215046FEF7EEFD254E264DFC
:101C500001274FF00008341FA0B108215046FEF7BD
:101C6000E3FD78B1A07868B94FF4807949462846F9
:101C7000FEF7DFFD49462846FEF7D6FDB0B186F8EF
:101C80000180277008215046FEF7CEFD00B10120EB
:101C9000A07020212846FEF7C7FDA8B120212846C4
:101CA000FEF7C2FD80B1E07810B10DE07770E8E793
:101CB00080212846FEF7BDFD80212846FEF7B4FDB1
:101CC00058B186F80280277020212846FEF7ACFD27
:101CD00000B10120E070BDE8F087B770F3E70000C5
:101CE0000008014004000020000C0140F8B5044643
:101CF00040684FF48273984217D1A0684FF4806512
:101D0000B0F5004F01D0A8420FD12068066826F038
:101D1000400606606068984207D1A068A84204D1D6
:101D200000920B460022012103E000920B460022A4
:101D30008021204600F018F8002804D0606D40F0A3
:101D4000200060650320F8BD38B50B4600920446BC
:101D50000022802100F008F8002804D0606D40F0D7
:101D600020006065032038BD2DE9F8431E469146EA
:101D700088460446089DFEF769FD401B351AFEF7AC
:101D800065FD074625480068C0F3CB30684338E05E
:101D9000701C37D0FEF75AFDC01BA84203D215B104
:101DA000009860B32CE02068416821F0E0014160B8
:101DB0006068B0F5827F0BD1A068B0F5004F02D00B
:101DC000B0F5806F04D12068016821F04001016006
:101DD000A06AB0F5005F09D12068016821F40051C4
:101DE00001602068016841F400510160012084F81D
:101DF0005100002084F850000320BDE8F88300253E
:101E0000401E00902068816838EA010004D000215B
:101E10004945BDD10020F0E70121F9E72C00002061
:101E20007047FEF719BD30B58FB028216846FEF720
:101E300081FA14210AA8FEF77DFA01210804CDE9F0
:101E400000100024029402250491CDE907504FF4BC
:101E5000E01009906846FEF745FE08B172B6FEE74D
:101E60000F20CDE90A054FF48060CDE90C40022136
:101E70000AA80E94FEF77AFD002801D072B6FEE79C
:101E80000FB030BD7047FEE70907090E002804DBDC
:101E900000F1E02080F80014704700F00F0000F11E
:101EA000E02080F8141D7047ACB0FEF7DDFCFFF7B2
:101EB000BAFFFFF7A9FAFFF717FB36225F4915A80B
:101EC000FEF706FA5D4CE08EADF88A00A06B239019
:101ED000A08FADF89000E08FADF89200112204F1D0
:101EE000400125A8FEF7F4F994F851008DF8A500FB
:101EF000606D2A904FF40040C6115149CDE9121689
:101F00001490482219A96846FEF7E2F90DF1540C25
:101F10009CE80F00FFF73CFB4A4CD4E90401FFF7B3
:101F200067FCD4E904230120FFF736FCD4E906233B
:101F30000220FFF731FC3420FFF7ACFC0220FFF752
:101F4000B1FC0320FFF7DCFCFFF7FCFB0120FFF7EF
:101F500086FC0F210A20FFF7F9FCFFF7FFFCFEF7D4
:101F600075FC394FC4F80800FFF7F6FAE8B3FFF73D
:101F70000FFC80460121FEF72BF905003AD04146BF
:101F8000FFF757FC2878442814D14FF400512F480C
:101F9000FEF74FFC6878012810D001223146384600
:101FA000FEF74FFCA87801280AD00122802138468C
:101FB000FEF747FC2878432804D01BE00022EDE719
:101FC0000022F3E71D48102229465830FEF73BF95E
:101FD0000520FEF727FB1949422058310870FFF70A
:101FE00004FD16481021583000E006E0FFF720FD00
:101FF000FFF7B4FC2846FEF7FFF8607821788843A5
:1020000019D1FEF723FCE168401AB0F5FA7F12D926
:102010000C494420091D0870FFF7E7FC094803211B
:10202000001DFFF705FD6070FFF798FC0020207091
:10203000FEF70CFCE060FFF701FE95E7480000208A
:102040000008014000000020000C01400010014089
:10205000010202030405060708090A0B0C0D0E0F06
:102060001010000000000000000001020304060739
:1020700008091112131415160A0B0C0D0E0F10007F
:10208000A0200008000000204800000028010008EF
:10209000E820000848000020200700004401000854
:1020A000010100000000000000000000000000002E
:1020B0001144332211000000224433221100000099
:1020C0000100000010000000000000000024F400E7
:1020D0000000000000000000000000000000000000
:0820E0000000000000000000F8
:04000005080000ED02
:00000001FF
