:020000040800F2
:100000007007002089010008E3110008D3100008E0
:10001000E1110008F3020008431A00080000000084
:10002000000000000000000000000000DD190008D2
:10003000F502000800000000A5180008DF190008FC
:10004000A3010008A3010008A3010008A301000800
:10005000A3010008A3010008A3010008A3010008F0
:10006000A3010008A3010008A3010008A3010008E0
:10007000A3010008A3010008A3010008A3010008D0
:10008000A3010008A3010008A3010008A3010008C0
:10009000A3010008A3010008A3010008A3010008B0
:1000A000A3010008A3010008A3010008A3010008A0
:1000B000A3010008A3010008A3010008A301000890
:1000C000A3010008A3010008A3010008A301000880
:1000D000A3010008A3010008A3010008A301000870
:1000E000A3010008A3010008A301000800F002F822
:1000F00000F03AF80AA090E8000C82448344AAF188
:100100000107DA4501D100F02FF8AFF2090EBAE885
:100110000F0013F0010F18BFFB1A43F0010318473B
:10012000A81A0000C81A0000103A24BF78C878C185
:10013000FAD8520724BF30C830C144BF04680C60ED
:10014000704700000023002400250026103A28BF35
:1001500078C1FBD8520728BF30C148BF0B60704739
:100160001FB51FBD10B510BD00F08AF81146FFF78E
:10017000F7FF01F077FC00F0A8F803B4FFF7F2FFF7
:1001800003BC00F0AFF80000094880470948004769
:10019000FEE7FEE7FEE7FEE7FEE7FEE7FEE7FEE737
:1001A000FEE7FEE704480549054A064B7047000094
:1001B000411A0008ED0000087001002070070020BF
:1001C000700300207003002010B5203AC0F00B80AF
:1001D000B1E81850203AA0E81850B1E81850A0E84B
:1001E0001850BFF4F5AF5FEA027C24BFB1E81850A5
:1001F000A0E8185044BF18C918C0BDE810405FEA15
:10020000827C24BF51F8043B40F8043B08BF704790
:10021000D20728BF31F8023B48BF11F8012B28BF95
:1002200020F8023B48BF00F8012B70474FF0000256
:1002300000B5134694469646203922BFA0E80C50DC
:10024000A0E80C50B1F12001BFF4F7AF090728BFB7
:10025000A0E80C5048BF0CC05DF804EB890028BF33
:1002600040F8042B08BF704748BF20F8022B11F05C
:10027000804F18BF00F8012B7047704770477047D8
:10028000754600F02BF8AE4605006946534620F04F
:100290000700854618B020B5FFF784FFBDE8204071
:1002A0004FF000064FF000074FF000084FF0000B32
:1002B00021F00701AC46ACE8C009ACE8C009ACE8E5
:1002C000C009ACE8C0098D46704710B50446AFF3CD
:1002D00000802046BDE81040FFF74FBF0048704740
:1002E0001001002001491820ABBEFEE726000200E5
:1002F0007047FEE77047000070B5044600F00CF947
:100300000546601C02D004480078044400F004F95B
:10031000401BA042FAD370BD180000202DE9F84F11
:10032000DFF8B8910024A9F1040B23460F2709F147
:10033000040AABF1040EC9E00125A5402A40AA42F7
:100340007DD1674ED1F804C0ACEB0608B44532D07D
:1003500014DCBCF1030F3AD009DCBCF1000F2AD049
:10036000BCF1010F1CD0BCF1020F31D11DE0BCF17A
:10037000110F17D0BCF1120F2AD119E0B8F5881F60
:1003800019D006DCB8F5803F15D0B8F5801F1FD115
:1003900011E0B8F5001F0ED0B8F5041F18D10AE01F
:1003A000CB6815E0CB681B1D12E0CB6808330FE06B
:1003B000CB680C330CE08B682BB1012B4FF008039A
:1003C00003D0456104E0042302E0056100E000235E
:1003D000FF2A01D8064601E000F104064FEA840531
:1003E00001D9A5F12005D6F8008007FA05FC28EA16
:1003F0000C0803FA05F548EA0508C6F800804D68C0
:10040000ED0062D5374DAE6946F00106AE61AD69CB
:1004100024F0030605F001050095334D06EB050CAD
:10042000DCF80850A607360F07FA06F825EA080593
:10043000DFF8B880404503D14FF0000817E044E0F2
:10044000DFF8AC80404502D14FF001080FE0DFF843
:10045000A480404502D14FF0020808E0DFF8988000
:10046000404502D14FF0030801E04FF0040808FABC
:1004700006F848EA0508CCF808804D68D9F800600D
:10048000ED024D4601D5164300E096432E604D68BF
:10049000DAF80060AD02554601D5164300E09643F8
:1004A0002E604D68DBF80060AD035D4601D5164354
:1004B00000E096432E604D68DEF80060ED0375465F
:1004C00001D5164300E096432E60641C0D682A4651
:1004D000E5407FF431AFBDE8F88F0000080401402B
:1004E000000011100010024000000140000801400F
:1004F000000C01400010014000140140C26821EAD4
:1005000002030A4043EA0241016170470AB10161F6
:1005100070470904FBE7000001488068704700004D
:1005200018000020024881680278114481607047F9
:1005300018000020074810B5016841F01001016063
:10054000032000F067F80F2000F006F800F024F810
:10055000002010BD0020024070B50D4D04464FF440
:100560007A712878B1FBF0F00A490968B1FBF0F024
:1005700000F09BFD48B9102C07D200222146501EE6
:1005800000F028F800206C6070BD012070BD0000F4
:1005900018000020240000200C4808B5816941F0B3
:1005A00001018161816901F001010091C16941F09E
:1005B0008051C161C06900F08050009004484168DA
:1005C00021F0E06141F00071416008BD001002407F
:1005D00000000140F0B40E4B1B680C46C3F302232D
:1005E000C3F10705042D00D90425191D072901D2DF
:1005F000002300E0DB1E012606FA05F1491E21401A
:1006000099409E40761E16403143F0BC01F01ABA64
:100610000CED00E0064900F0070208684FF6FF0302
:10062000184040EA0220034A104308607047000067
:100630000CED00E00000FA052DE9F0470F4605003B
:1006400061D0434E306800F00700B84209D23068EC
:1006500020F0070038433060306800F00700B842EF
:1006600051D128683B4C810712D5400703D56068FB
:1006700040F4E06060602878000703D5606840F4CB
:10068000605060606068A96820F0F0000843606016
:100690002878C00728D06868012810D0216802286F
:1006A00010D0890700292EDA616821F00301014387
:1006B0006160FFF731FF804641F288390DE0216823
:1006C0008903EFE78901EDE7FFF726FFA0EB0801BB
:1006D000494502D90320BDE8F0876068696800F0E9
:1006E0000C00B0EB810FEFD1306800F00700B8428A
:1006F0000BD9306820F0070038433060306800F0D4
:100700000700B84201D00120E5E72878400705D569
:100710006068E96820F4E0600843606028780007BA
:1007200006D56068296920F4605040EAC100606025
:1007300000F018F86168084AC1F30311515CC84021
:100740000649086006480068FFF706FF0020C2E778
:100750000020024000100240AA1B000824000020D4
:100760001C0000200E4A51680E4801F00C03042BB7
:1007700011D0082B0FD10C48C1F38343C903C05CCF
:100780000AD55168084AC1F34041921E515C054A9E
:100790005043B0FBF1F070470449484370470000F4
:1007A0000010024000127A009A1B000800093D0068
:1007B0002DE9F84F040070D02078C04DC00749D013
:1007C0006868C0F38100012807D06868C0F3810021
:1007D000022809D16868C00306D52868800339D586
:1007E00060680028E7D035E06068B0F5803F0BD046
:1007F00010B1B0F5A02F11D0286820F48030286007
:10080000286820F4802002E0286840F480302860C6
:10081000606890B1FFF780FE06460AE0286840F461
:1008200080202860F0E700BFFFF776FE801B642879
:1008300073D828688003F7D50CE0FFF76DFE0646F5
:1008400005E000BFFFF768FE801B6428F0D8286829
:100850008003F7D420789A4E80074FF001094FF0BB
:10086000000839D5686810F00C0F07D06868C0F32D
:100870008100022809D16868C00306D4286880076F
:1008800014D52069012808D110E02069B0B1C6F85C
:100890000090FFF741FE074605E00AE1FFF73CFE46
:1008A000C01B0228C4D828688007F7D5286861696A
:1008B00020F0F80040EAC10028600DE0C6F8008092
:1008C000FFF72AFE074604E0FFF726FEC01B0228BA
:1008D00023D828688007F7D4207800072CD57948DA
:1008E000A169D9B1C0F80090FFF716FE074604E0F1
:1008F000FFF712FEC01B02280FD8686A8007F7D5E1
:1009000071484FF4FA510068B0FBF1F0009000BF5D
:100910000098411E0091FAD20EE080E0C0F80080FD
:10092000FFF7FAFD074604E0FFF7F6FDC01B0228BB
:1009300075D8686A8007F7D42078400760D5E869E1
:100940000027C00008D4E86940F08050E861E869F9
:10095000012700F0805000905C480168C90513D45D
:100960000168834641F480710160FFF7D5FD82463E
:1009700006E000BFFFF7D0FDA0EB0A0064284ED8C8
:10098000DBF80000C005F5D5E06801280AD008B101
:10099000052813D0286A20F001002862286A20F078
:1009A000040002E0286A40F001002862E06841F299
:1009B000883B98B1FFF7B0FD82460BE0286A40F013
:1009C00004002862EEE700BFFFF7A6FDA0EB0A01D6
:1009D00059455AD8286A8007F6D50CE0FFF79CFDE8
:1009E000824605E0FFF798FDA0EB0A0159454CD877
:1009F000286A8007F6D41FB1E86920F08050E861CA
:100A0000E06988B36968C1F38101022944D00228F2
:100A1000C6F8608004D0FFF77FFD044638E034E07C
:100A2000FFF77AFD074604E0FFF776FDC01B0228BA
:100A30002BD828688001F7D4206AB0F5803F05D113
:100A40006868A16820F4003008436860D4E90801B0
:100A50000843696821F4741108436860C6F860901F
:100A6000FFF75AFD044606E025E000BFFFF754FDFE
:100A7000001B022809D828688001F7D51BE000BFB9
:100A8000FFF74AFD001B022802D90320BDE8F88FBA
:100A900028688001F4D40EE00128F7D06868226A43
:100AA00000F48031914204D1616A00F470108842F0
:100AB00001D00120EAE70020E8E700000010024032
:100AC00000004242800442422400002000700040A6
:100AD00070B5040009D0606A002540B125616561E8
:100AE000A56294F8510040B10CE0012070BD60682F
:100AF000B0F5827FF4D0E561F2E784F850502046EB
:100B000000F040F8022084F851002068016821F0CC
:100B100040010160A088218900F4827001F4044141
:100B20000843A18901F400610843217C01F002011E
:100B30000843217D01F001010843218B01F400717C
:100B40000843217F01F03801084394F8201001F098
:100B500080010843218D01F4005108432168086099
:100B6000A069042101EA1040216848602068C16939
:100B700021F40061C1616565012084F85100002005
:100B800070BD000030B585B000240094019402943B
:100B9000039400681549884225D11548C16941F47C
:100BA0008041C161C16901F480410491816941F0D2
:100BB0000801816180690F4D00F0080004904FF436
:100BC00020400090022001900320039069462846AF
:100BD000FFF7A4FB4FF48040CDE9000469462846A6
:100BE0000294FFF79BFB05B030BD000000380040C9
:100BF00000100240000C01402DE9F84F044690F827
:100C00005100984616460F460025012801D00225BE
:100C100098E060684FF0040BB0F5827F01D1A068C6
:100C2000F8B194F85000012826D04FF0010984F85B
:100C30005090FFF771FC8246002F7FD0002E7DD0B0
:100C400084F851B000206065A763A687E68720631B
:100C5000A086E08620646064A068B0F5004F0DD0E7
:100C600016E084F851B013460A462046CDF80080BD
:100C700000F024F9BDE8F88F0220FBE72068016846
:100C800021F0400101602068016821F48041016089
:100C900020680168490603D4016841F04001016001
:100CA000E068D8B13BE020688168C90709D0007BC3
:100CB000A16B0870A06B401CA063E08F401EE08712
:100CC0000CE0FFF729FCA0EB0A01414503D3B8F182
:100CD000FF3F03D006E0B8F1000F03D0E08F0028FB
:100CE000E1D11FE003252BE020688168C90709D006
:100CF000C068A16B0880A06B801CA063E08F401EC1
:100D0000E0870CE0FFF708FCA0EB0A01414503D3A4
:100D1000B8F1FF3F03D0E5E7B8F1000FE2D0E08F74
:100D20000028E1D152464146204600F0BCFD08B102
:100D300020206065606D00E000E008B1012501E061
:100D400084F85190002084F85000284692E72DE95D
:100D5000F84F044690F850000026984615468A46FB
:100D600001280CD0012784F85070FFF7D5FB81468D
:100D700094F85100B346012804D002269AE00220DC
:100D8000BDE8F88FBAF1000F6FD0002D6DD00320B1
:100D900084F85100C4F854B0C4F830A0A586E586A4
:100DA000C4F838B0A4F83CB0A4F83EB0C4F844B0DD
:100DB000C4F840B0A068B0F5004F09D120680168C0
:100DC00021F0400101602068016841F48041016028
:100DD00020680168490603D4016841F040010160C0
:100DE000E068B0F5006F606803D058B3012D29D0DA
:100DF00049E008B1012D1FD1206B21680088C8602F
:100E000006E020688168890709D5216B0988C160DF
:100E1000206B801C2063E08E401EE0860CE0FFF714
:100E20007BFBA0EB0901414503D3B8F1FF3F03D0A1
:100E300006E0B8F1000F03D0E08E0028E1D125E0F4
:100E4000032635E0206B21680078087306E02068EF
:100E5000816889070AD5216B09780173206B401CD2
:100E60002063E08E401EE0860DE01FE0FFF754FB9C
:100E7000A0EB0901414503D3B8F1FF3F03D0DFE701
:100E8000B8F1000FDCD0E08E0028E0D14A464146A0
:100E9000204600F036FD08B120206065A06818B932
:100EA0002068C16880680090606D08B1012601E08B
:100EB00084F8517084F850B0304661E72DE9FF4F57
:100EC00081B0044690F8500000260E9F1D469346C0
:100ED0004FF0010901280FD04FF0010A84F850A00B
:100EE000FFF71AFB804694F85100616801280DD085
:100EF000B1F5827F08D103E0022005B0BDE8F08F94
:100F0000A16809B9042801D00226C9E00298002886
:100F100065D0BBF1000FFBD0002DF9D094F8510043
:100F2000042802D0052084F8510000206065C4F830
:100F300038B0E587A58702992163E586A5862064F8
:100F4000606420680168490603D4016841F04001EB
:100F50000160E068B0F5006F606803D0F0B3012D68
:100F600047D081E008B1012D3CD1206B2168008879
:100F7000C860206B801C2063E08E401EE08631E05C
:100F80002068816889070FD5E18E69B1B9F1010F39
:100F90000AD1216B0988C160206B801C2063E08E20
:100FA000401EE0864FF0000920688168C9070CD018
:100FB000E18F51B1C068A16B0880A06B801CA06359
:100FC000E08F401EE0874FF00109FFF7A5FAA0EB84
:100FD0000800B84206D3781C04D001E009E05BE0C9
:100FE00003265BE0E08E0028CAD1E08F0028C7D13D
:100FF00040E0206B216800780873206B401C206360
:10100000E08E401EE0862FE02068816889070FD5BA
:10101000E18E69B1B9F1010F0AD1216B0978017331
:10102000206B401C2063E08E401EE0864FF00009DC
:1010300020688168C9070CD0E18F51B1C068A16BED
:101040000870A06B401CA063E08F401EE0874FF04B
:101050000109FFF761FAA0EB0800B84202D3781C3F
:1010600002D0BAE7002FB8D0E08E0028CCD1E08FB4
:101070000028C9D142463946204600F042FC18B14A
:101080000126202060650BE0A06818B92068C168BF
:1010900080680090606D08B1012601E084F851A0DD
:1010A000002084F85000304627E710B5401EB0F10C
:1010B000807F01D3012010BD4FF0E02460610F213B
:1010C000601700F0BFFC0020A06107202061002015
:1010D00010BDFEE72DE9F04186B000252C480095B3
:1010E000019502950395816941F020018161816933
:1010F00001F020010491816941F00401816181695D
:1011000001F004010491816941F008018161816964
:1011100001F008010491816941F010018161806949
:101120001C4F00F010000490012203213846FFF705
:10113000EDF9DFF864804FF4014601223146404664
:10114000FFF7E4F90324CDE900450125694640464F
:101150000295FFF7E3F8CDE90254CDE90045694671
:101160003846FFF7DBF86803CDE90005CDE9025406
:1011700069460A48FFF7D2F8CDE90065CDE9025487
:1011800069464046FFF7CAF806B0BDE8F0810000A6
:1011900000100240000C0140000801400010014016
:1011A0000E4810B50C4901604FF482714160002176
:1011B0008160C1604FF400720161C0E90512C16134
:1011C0000162416281620A21C162FFF781FC00284D
:1011D00001D072B6FEE710BD00380040400000208C
:1011E000FEE7FEE708B5002000F094FA50208DF8E5
:1011F000000073208DF80100642302226946034831
:10120000FFF7A5FD012000F085FA08BDB800002019
:101210000020AFF3008070B5054600F08DFA04465B
:10122000C0F380166EB115B1C4F34200287040219E
:10123000072000F001FBA00603D52021072000F0C5
:10124000FBFA304670BD00000FB460487CB50DF16C
:10125000700C58229CE8700006A9FEF7B5FF5C48A8
:10126000C460C5800681012000F054FA002000F01F
:1012700047FA0520FFF740F80821002000F0DCFACB
:101280003F21012000F0D8FA0321022000F0D4FA17
:101290000321084600F0D0FA0321042000F0CCFA24
:1012A0000221052000F0C8FA0F21062000F0C4FA40
:1012B0000E21072000F0C0FA0021082000F0BCFA3F
:1012C0000021092000F0B8FAE7248DF803408DF8DA
:1012D00002408DF801408DF804408DF80040052251
:1012E00069460A2000F0C0FAC2208DF803008DF88C
:1012F00002008DF801008DF804008DF80000052231
:1013000069460B2000F0B0FAC3210C2000F094FADB
:10131000C4210D2000F090FAC5210E2000F08CFAB7
:10132000C6210F2000F088FA8DF803408DF80240A6
:101330008DF801408DF804408DF800400522694683
:10134000102000F091FA0021112000F075FA002120
:10135000122000F071FA0021132000F06DFA002134
:10136000142000F069FA0021152000F065FA002130
:10137000162000F061FAFFF735FF00211C2000F075
:101380005BFA00211D2000F057FA00210F2000F029
:1013900013F9032000F0EAF8022000F0B9F8022067
:1013A00000F09AF800F016F8202000F0FDF800F0A8
:1013B00088F84C2000F0A4F800F0BAF900F0B4F975
:1013C00000F062F87CBC5DF814FB0000B80000205F
:1013D0002800002010B51D2000F0D4F920F00401F1
:1013E0001D2000F029FA00211C2000F025FA0249F6
:1013F0000020C87010BD000028000020602000F010
:10140000C1B900007FB504001248134D06D0062C68
:101410001ED8022C07D2005D052206E0DDE902128B
:10142000C5E90412F7E7005D012202A900F01CFAE9
:101430000848A978801F005D00F0FEF9022000F046
:10144000A1F90121A1400843C1B2022000F0F4F942
:101450007FBD0000C01B00082800002013B5052236
:1014600069460A2000F000FA05226946102000F0C3
:10147000FBF904488178202900D32021112000F0B5
:10148000DBF91CBD2800002010B5002000F07AF91F
:1014900020F00201BDE81040002000F0CDB910B5E9
:1014A00000F04EF9172000F06DF900F0010400F093
:1014B0003BF9602000F066F90CB1012010BD00205E
:1014C00010BD7021072000F0B7B908B13F2100E03E
:1014D0000021012000F0B0B910B50446002000F052
:1014E00051F920F00C011CB1012C06D041F00C0187
:1014F000BDE81040002000F09FB941F00801F7E777
:101500007F2800D37F200146052000F095B9000018
:101510002DE9F04107464FF00008062000F032F9AF
:10152000114D002620F028046E71022F0ED0012FDD
:1015300010D06E712146062000F07EF9062000F0E2
:1015400021F9A0420BD14FF0010809E06E7144F07F
:101550002004EFE70120687144F00804EAE76E71A7
:101560004046BDE8F08100002800002010B5044688
:10157000062000F007F920F00601032C0DD0022C04
:1015800005D0012C06D054B1042C06D007E041F060
:10159000040104E041F0020101E041F00601BDE870
:1015A0001040062000F048B9202800D3202001492F
:1015B000887070472800002000F00F0060F31F11B2
:1015C000042000F039B9000010B5002000F0DAF86E
:1015D00040F00301002000F02FF90B49D1E904018C
:1015E000084305D00849052210310A2000F03CF9D3
:1015F00000F09EF800F098F8012000F081F8BDE8B6
:1016000010400120FEF778BE2800002070B5054686
:101610000C46002000F074F8002000F0B3F820F031
:10162000010040F00201002000F006F9012000F066
:1016300067F80120FEF760FE2146284600F0E0F83A
:10164000012000F05DF80120FEF756FEBDE8704075
:10165000002000F055B810B5002000F051F800F05F
:1016600067F8BDE8104000F05FB82DE9F04115467D
:101670000E46044600F060F80746002020707021F6
:10168000072000F0D9F8C7F340102070C7F300100E
:101690003070C7F380102870BDE8F0813EB50C466D
:1016A0000546FFF70EFF21462846FFF7AFFFFEF77E
:1016B00033FF0446012201A9082000F083F800F05E
:1016C0003BF810F0300F04D1FEF726FF001B0A286C
:1016D000F0D30A4A02A96846FFF7C7FF074C9DF8F6
:1016E0000050207810B1FFF789FE60700020FFF7EE
:1016F00092FD00F01DF828463EBD000028000020A5
:10170000020003480189C06800D00122FEF7FEBE36
:101710002800002002000348C188C06800D00122D0
:10172000FEF7F4BE28000020FF21E22000F084B87C
:10173000FF21E12000F080B8072000F023B800006E
:1017400038B505460D4884788C4200D90C460020F7
:10175000FFF7E0FF61208DF8000064230122694655
:101760000748FFF7F4FA6423224629460448FFF7A6
:1017700043FA0120FFF7CEFF38BD0000280000200B
:10178000B800002038B504460020FFF7C3FF04F07E
:101790001F008DF800006423012269460848FFF706
:1017A000D6FA6423012206480DF10101FFF724FA5D
:1017B0009DF801400120FFF7ADFF204638BD000035
:1017C000B8000020F8B5044615460E460020FFF785
:1017D000A1FF04F01F008DF8000064230122694678
:1017E0000648FFF7B4FA64232A4631460348FFF758
:1017F00003FA0120FFF78EFFF8BD0000B8000020BB
:1018000038B505460C460020FFF784FFA0208DF870
:1018100000006423012269460648FFF798FA642312
:10182000224629460348FFF792FA0120FFF772FF8C
:1018300038BD0000B800002038B505460C46002031
:10184000FFF768FF45F020008DF800008DF801409B
:101850006423022269460348FFF779FA0120FFF763
:1018600059FF38BDB8000020F8B5044615460E46AD
:101870000020FFF74FFF44F020008DF800006423A4
:10188000012269460648FFF762FA64232A46314678
:101890000348FFF75CFA0120FFF73CFFF8BD0000AA
:1018A000B80000207047F8B5044640684FF48273D2
:1018B000984217D1A0684FF48065B0F5004F01D071
:1018C000A8420FD12068066826F0400606606068CE
:1018D000984207D1A068A84204D100920B4600228A
:1018E000012103E000920B4600228021204600F0F7
:1018F00019F8002804D0606D40F0200060650320D6
:10190000F8BD38B50B46009204460022802100F055
:1019100009F8002804D0606D40F0200060650320C5
:1019200038BD00002DE9F8431E469146884604461E
:10193000089DFEF7F1FD401B351AFEF7EDFD074649
:1019400025480068C0F3CB30684338E0701C37D0BE
:10195000FEF7E2FDC01BA84203D215B1009860B3A8
:101960002CE02068416821F0E00141606068B0F53A
:10197000827F0BD1A068B0F5004F02D0B0F5806F28
:1019800004D12068016821F040010160A06AB0F52F
:10199000005F09D12068016821F4005101602068CE
:1019A000016841F400510160012084F851000020D9
:1019B00084F850000320BDE8F8830025401E009005
:1019C0002068816838EA010004D000214945BDD172
:1019D0000020F0E70121F9E7240000207047FEF71E
:1019E000A1BD30B58FB028216846FEF71FFC142139
:1019F0000AA8FEF71BFC01210804CDE90010002411
:101A0000029402250491CDE907504FF4E0100990AB
:101A10006846FEF7CDFE08B172B6FEE70F20CDE9AD
:101A20000A054FF48060CDE90C4002210AA80E940B
:101A3000FEF702FE002801D072B6FEE70FB030BDFF
:101A40007047FEE70907090E002804DB00F1E020DB
:101A500080F80014704700F00F0000F1E02080F8DB
:101A6000141D7047B0B0FEF765FDFFF7BAFFFFF732
:101A700031FBFFF795FB3622434915A8FEF7A4FB7F
:101A8000414CE08EADF88A00A06B2390A08FADF89A
:101A90009000E08FADF89200112204F1400125A8DA
:101AA000FEF792FB94F851008DF8A500606D2A9026
:101AB0004FF40042354812ABD11183E807004822A9
:101AC00019A96846FEF780FB0DF1540C9CE80F0045
:101AD000FFF7BAFB2E4DD5E90201FFF7BFFCD5E9B0
:101AE00002230120FFF78EFCD5E904230220FFF733
:101AF00089FC3420FFF704FD0220FFF709FD0320D5
:101B0000FFF734FD0120FFF7E0FCFFF75DFDFEF776
:101B100003FD04F15806A0464FF40059DFF874A005
:101B20004FF4FA7442272860FFF772FBC0B11648E1
:101B300020215830FFF7B3FC3078422803D14946C2
:101B40005046FEF7DBFC3078432809D108F15800F5
:101B500090E80E00D8F86400CDE92D30CDE92B12C5
:101B6000FEF7DAFC2968401AA042DDD9FFF773FDC1
:101B70008DF8AC7020212BA8FFF790FDFFF724FD16
:101B8000FEF7CAFC2860CFE74000002000080140B3
:101B900000000020001001400102020304050607B6
:101BA00008090A0B0C0D0E0F1010000000000000B9
:101BB0000000010203040607080911121314151688
:101BC0000A0B0C0D0E0F1000E81B0008000000208F
:101BD0004000000028010008281C000840000020E8
:101BE0003007000044010008000000000000000071
:101BF000114433221100000022443322110000005E
:101C00000100000010000000000000000024F400AB
:101C100000000000000000000000000000000000C4
:081C20000000000000000000BC
:04000005080000ED02
:00000001FF
